S01F00004F4E2044656D616E642054726166666963204C696768742E7372656308
S11300000C942A000C94DE010C9447000C944700D5
S11300100C9447000C9447000C9447000C94470040
S11300200C9447000C9447000C9447000C94470030
S11300300C9447000C9447000C9447000C94470020
S11300400C9447000C9447000C9447000C94470010
S11300500C94470011241FBECFE5D8E0DEBFCDBF0E
S113006010E0A0E6B0E0E4E5FCE002C005900D92EB
S1130070A236B107D9F720E0A2E6B0E001C01D9294
S1130080A436B207E1F70E9450020C9428060C949F
S1130090000060E081E40E942F0261E081E40E949C
S11300A02F0262E081E40E942F0260E082E40E9459
S11300B02F0261E082E40E942F0262E082E40E9447
S11300C02F0262E084E40E9416020E94890378945D
S11300D085B7836085BF8BB780648BBF0895CF934A
S11300E080916000811107C090916200992319F0FA
S11300F0913009F0F9C0811103C081E0809362005E
S113010060E082E40E94450261E082E40E944502CC
S113011080916200813021F120F0823009F4BDC069
S1130120DCC060E081E40E943A0261E081E40E9464
S1130130450262E081E40E944502C0E009C084E413
S113014090E00E948B0380916000882319F0CF5FB8
S1130150C233A8F381E080936200109261002CC145
S113016080916000811148C0809161008230C9F1A2
S113017060E082E40E94450262E081E40E9445025C
S113018060E081E40E94450262E082E40E9445024C
S1130190C0E025C061E081E40E943A0261E082E4AB
S11301A00E943A0286E891E00E948B0361E081E4B8
S11301B00E94450261E082E40E9445028EEB90E0D9
S11301C00E948B0361E081E40E943A0261E082E4D0
S11301D00E943A0286E891E00E948B03CF5FC5300B
S11301E0C8F281E08093610082E08093620062E063
S11301F081E40E943A0235C060E082E40E94450234
S113020062E081E40E94450260E081E40E944502CC
S113021062E082E40E944502C0E021C061E081E422
S11302200E943A028CE791E00E948B0361E081E432
S11302300E94450284EB90E00E948B0361E081E41C
S11302400E943A028CE791E00E948B038091600047
S1130250811104C081E08093610003C0CF5FC53089
S1130260E8F261E081E40E94450261E082E40E94D8
S1130270450280916100811107C082E08093620091
S113028081E08093610098C0823009F095C010929B
S1130290620081E0809361008FC060E081E40E948D
S11302A0450261E081E40E94450262E081E40E942B
S11302B03A02C0E009C084E490E00E948B0380917C
S11302C06000882319F0CF5FC233A8F382E08093E3
S11302D0610081E0809362006FC082E080936200DD
S11302E081E08093610068C060E082E40E943A0289
S11302F061E082E40E94450262E082E40E944502D9
S113030060E081E40E94450261E081E40E944502CC
S113031062E081E40E943A0288E893E10E948B0340
S113032060E082E40E94450262E081E40E944502AA
S113033060E081E40E94450262E082E40E9445029A
S1130340C0E025C061E081E40E943A0261E082E4F9
S11303500E943A0286E891E00E948B0361E081E406
S11303600E94450261E082E40E9445028EEB90E027
S11303700E948B0361E081E40E943A0261E082E41E
S11303800E943A0286E891E00E948B03CF5FC53059
S1130390C8F261E081E40E94450261E082E40E94C7
S11303A0450262E082E40E943A0281E080936000A8
S11303B01092620080936100CF9108951F920F9272
S11303C00FB60F9211242F933F934F935F936F9324
S11303D07F938F939F93AF93BF93EF93FF9343E6E2
S11303E050E062E084E40E9421028091630086343C
S11303F030F081E0809360001092630006C0863480
S113040020F41092600010926300FF91EF91BF916D
S1130410AF919F918F917F916F915F914F913F9198
S11304202F910F900FBE0F901F90189540E00E94DF
S11304305502892B19F080E090E0089581E090E066
S11304400895FA01829906C081E090E008958081C0
S11304508F5F80838299FBCF80E090E0089541E034
S11304600E945502892B19F080E090E0089581E004
S113047090E0089541E00E94EF02892B19F080E09A
S113048090E0089581E090E0089540E00E94EF023A
S1130490892B19F080E090E0089581E090E00895C0
S11304A00E9449000E946F00FDCF823459F118F474
S11304B0813441F085C0833409F444C0843409F4A0
S11304C060C07EC041110EC02AB381E090E002C03A
S11304D0880F991F6A95E2F7809582238ABB80E092
S11304E090E00895413009F06EC02AB381E090E0B5
S11304F002C0880F991F6A95E2F7822B8ABB80E0BD
S113050090E0089541110EC027B381E090E002C04D
S1130510880F991F6A95E2F78095822387BB80E054
S113052090E00895413009F051C027B381E090E094
S113053002C0880F991F6A95E2F7822B87BB80E07F
S113054090E0089541110EC024B381E090E002C010
S1130550880F991F6A95E2F78095822384BB80E017
S113056090E008954130A9F524B381E090E002C001
S1130570880F991F6A95E2F7822B84BB80E090E094
S1130580089541110EC021B381E090E002C0880FAC
S1130590991F6A95E2F78095822381BB80E090E001
S11305A008954130C9F421B381E090E002C0880F7E
S11305B0991F6A95E2F7822B81BB80E090E0089551
S11305C081E090E0089581E090E0089581E090E07A
S11305D0089581E090E0089581E090E008958234E8
S11305E059F118F4813441F085C0833409F444C0CE
S11305F0843409F460C07EC041110EC02BB381E085
S113060090E002C0880F991F6A95E2F780958223D3
S11306108BBB80E090E00895413009F06EC02BB3AD
S113062081E090E002C0880F991F6A95E2F7822B5F
S11306308BBB80E090E0089541110EC028B381E0A7
S113064090E002C0880F991F6A95E2F78095822393
S113065088BB80E090E00895413009F051C028B390
S113066081E090E002C0880F991F6A95E2F7822B1F
S113067088BB80E090E0089541110EC025B381E06D
S113068090E002C0880F991F6A95E2F78095822353
S113069085BB80E090E008954130A9F525B381E061
S11306A090E002C0880F991F6A95E2F7822B85BB00
S11306B080E090E0089541110EC022B381E090E003
S11306C002C0880F991F6A95E2F78095822382BB46
S11306D080E090E008954130C9F422B381E090E0D5
S11306E002C0880F991F6A95E2F7822B82BB80E0D3
S11306F090E0089581E090E0089581E090E008950D
S113070081E090E0089581E090E0089581E090E038
S1130710089513BE08958F929F92AF92BF92CF9285
S1130720DF92EF92FF92CF93DF93EC01BC0180E064
S113073090E00E9435056B017C012FE632E143E82D
S113074052E40E948F0488239CF4A70196016FE66B
S113075072E183E892E40E940B042FE632E143E85D
S11307605EE30E9494040E940605C1E0D0E035C017
S1130770C134D10579F12FE632E143E852E4C701EF
S1130780B6010E9494040E9478040E9406054B015D
S11307905C01EB012FE632E143E85EE3C701B601F9
S11307A00E9494046B017C01B40180E090E00E94FB
S11307B035059B01AC01C701B6010E9494049B015D
S11307C0AC0160E070E080E893E40E940B040E94B6
S11307D0060503C060E0C1E0D0E062BF83B7846077
S11307E083BF20E030E008C008B600FEFDCF88B724
S11307F0816088BF2F5F3F4F2C173D07A8F313BEBE
S1130800DF91CF91FF90EF90DF90CF90BF90AF90AA
S11308109F908F9008955058BB27AA270E942304C5
S11308200C94D6050E94C80538F00E94CF0520F02C
S113083039F49F3F19F426F40C94C5050EF4E095A1
S1130840E7FB0C949605E92F0E94E70558F3BA17C5
S1130850620773078407950720F079F4A6F50C94D2
S113086021060EF4E0950B2EBA2FA02D0B01B90131
S113087090010C01CA01A0011124FF27591B99F012
S1130880593F50F4503E68F11A16F040A22F232F1E
S1130890342F4427585FF3CF469537952795A7956E
S11308A0F0405395C9F77EF41F16BA0B620B730B15
S11308B0840BBAF09150A1F0FF0FBB1F661F771F86
S11308C0881FC2F70EC0BA0F621F731F841F48F43B
S11308D0879577956795B795F7959E3F08F0B0CFC4
S11308E09395880F08F09927EE0F979587950895AB
S11308F00E94090690F09F3748F4911116F40C9465
S1130900220660E070E080E89FE3089526F01B165D
S1130910611D711D811D0C949C050C94B7050E94EA
S1130920720508F481E008950E94A8040C94D60589
S11309300E94CF0558F00E94C80540F029F45F3F9B
S113094029F00C94960551110C9422060C94C505BB
S11309500E94E70568F39923B1F3552391F3951B9E
S1130960550BBB27AA2762177307840738F09F5FCC
S11309705F4F220F331F441FAA1FA9F335D00E2E39
S11309803AF0E0E832D091505040E695001CCAF7A6
S11309902BD0FE2F29D0660F771F881FBB1F261769
S11309A037074807AB07B0E809F0BB0B802DBF0140
S11309B0FF2793585F4F3AF09E3F510578F00C940F
S11309C096050C9422065F3FE4F3983ED4F3869593
S11309D077956795B795F7959F5FC9F7880F911D30
S11309E09695879597F90895E1E0660F771F881F1C
S11309F0BB1F621773078407BA0720F0621B730BCF
S1130A00840BBA0BEE1F88F7E09508950E94EF055A
S1130A1088F09F5798F0B92F9927B751B0F0E1F0BB
S1130A20660F771F881F991F1AF0BA95C9F714C06B
S1130A30B13091F00E942106B1E008950C94210692
S1130A40672F782F8827B85F39F0B93FCCF38695A4
S1130A5077956795B395D9F73EF490958095709501
S1130A6061957F4F8F4F9F4F0895E89409C097FB7E
S1130A703EF490958095709561957F4F8F4F9F4F71
S1130A809923A9F0F92F96E9BB279395F6958795B5
S1130A9077956795B795F111F8CFFAF4BB0F11F478
S1130AA060FF1BC06F5F7F4F8F4F9F4F16C088231F
S1130AB011F096E911C0772321F09EE8872F762F55
S1130AC005C0662371F096E8862F70E060E02AF096
S1130AD09A95660F771F881FDAF7880F9695879582
S1130AE097F90895990F0008550FAA0BE0E8FEEF57
S1130AF016161706E807F907C0F012161306E407DE
S1130B00F50798F0621B730B840B950B39F40A26D6
S1130B1061F0232B242B252B21F408950A2609F4B4
S1130B20A140A6958FEF811D811D089597F99F67B8
S1130B3080E870E060E00895882371F4772321F061
S1130B409850872B762F07C0662311F499270DC080
S1130B509051862B70E060E02AF09A95660F771F1B
S1130B60881FDAF7880F9695879597F908959F3F20
S1130B7031F0915020F4879577956795B795880F54
S1130B80911D9695879597F908959FEF80EC0895A8
S1130B9000240A9416161706180609060895002458
S1130BA00A9412161306140605060895092E0394D2
S1130BB0000C11F4882352F0BB0F40F4BF2B11F446
S1130BC060FF04C06F5F7F4F8F4F9F4F089557FDA5
S1130BD09058440F551F59F05F3F71F04795880FA7
S1130BE097FB991F61F09F3F79F08795089512163E
S1130BF013061406551FF2CF4695F1DF08C01616EA
S1130C0017061806991FF1CF86957105610508949A
S1130C1008950E94EF05A0F0BEE7B91788F4BB273A
S1130C209F3860F41616B11D672F782F8827985FB8
S1130C30F7CF869577956795B11D93959639C8F347
S1130C400895E894BB2766277727CB0197F9089581
S1070C50F894FFCF42
S1050C54010198
S9030000FC
